{
  "contractName": "Campaign",
  "abi": [
    {
      "inputs": [
        {
          "internalType": "uint256",
          "name": "minimum",
          "type": "uint256"
        },
        {
          "internalType": "address",
          "name": "creator",
          "type": "address"
        }
      ],
      "payable": false,
      "stateMutability": "nonpayable",
      "type": "constructor"
    },
    {
      "anonymous": false,
      "inputs": [
        {
          "indexed": false,
          "internalType": "uint256",
          "name": "amount",
          "type": "uint256"
        }
      ],
      "name": "NewContribution",
      "type": "event"
    },
    {
      "anonymous": false,
      "inputs": [
        {
          "indexed": false,
          "internalType": "address",
          "name": "contributor",
          "type": "address"
        }
      ],
      "name": "NewContributor",
      "type": "event"
    },
    {
      "anonymous": false,
      "inputs": [
        {
          "indexed": false,
          "internalType": "address",
          "name": "recipient",
          "type": "address"
        },
        {
          "indexed": false,
          "internalType": "uint256",
          "name": "amount",
          "type": "uint256"
        }
      ],
      "name": "SubmittedRequestToRecipient",
      "type": "event"
    },
    {
      "anonymous": false,
      "inputs": [
        {
          "indexed": false,
          "internalType": "address",
          "name": "recipient",
          "type": "address"
        },
        {
          "indexed": false,
          "internalType": "uint256",
          "name": "amount",
          "type": "uint256"
        }
      ],
      "name": "TransferComplete",
      "type": "event"
    },
    {
      "constant": true,
      "inputs": [
        {
          "internalType": "address",
          "name": "",
          "type": "address"
        }
      ],
      "name": "approvers",
      "outputs": [
        {
          "internalType": "bool",
          "name": "",
          "type": "bool"
        }
      ],
      "payable": false,
      "stateMutability": "view",
      "type": "function"
    },
    {
      "constant": true,
      "inputs": [],
      "name": "approversCount",
      "outputs": [
        {
          "internalType": "uint256",
          "name": "",
          "type": "uint256"
        }
      ],
      "payable": false,
      "stateMutability": "view",
      "type": "function"
    },
    {
      "constant": true,
      "inputs": [],
      "name": "manager",
      "outputs": [
        {
          "internalType": "address",
          "name": "",
          "type": "address"
        }
      ],
      "payable": false,
      "stateMutability": "view",
      "type": "function"
    },
    {
      "constant": true,
      "inputs": [],
      "name": "minimumContribution",
      "outputs": [
        {
          "internalType": "uint256",
          "name": "",
          "type": "uint256"
        }
      ],
      "payable": false,
      "stateMutability": "view",
      "type": "function"
    },
    {
      "constant": true,
      "inputs": [
        {
          "internalType": "uint256",
          "name": "",
          "type": "uint256"
        }
      ],
      "name": "requests",
      "outputs": [
        {
          "internalType": "string",
          "name": "description",
          "type": "string"
        },
        {
          "internalType": "uint256",
          "name": "value",
          "type": "uint256"
        },
        {
          "internalType": "address payable",
          "name": "recipient",
          "type": "address"
        },
        {
          "internalType": "bool",
          "name": "complete",
          "type": "bool"
        },
        {
          "internalType": "uint256",
          "name": "approvalCount",
          "type": "uint256"
        }
      ],
      "payable": false,
      "stateMutability": "view",
      "type": "function"
    },
    {
      "constant": false,
      "inputs": [],
      "name": "contribute",
      "outputs": [],
      "payable": true,
      "stateMutability": "payable",
      "type": "function"
    },
    {
      "constant": false,
      "inputs": [
        {
          "internalType": "string",
          "name": "description",
          "type": "string"
        },
        {
          "internalType": "uint256",
          "name": "value",
          "type": "uint256"
        },
        {
          "internalType": "address payable",
          "name": "recipient",
          "type": "address"
        }
      ],
      "name": "createRequest",
      "outputs": [],
      "payable": false,
      "stateMutability": "nonpayable",
      "type": "function"
    },
    {
      "constant": false,
      "inputs": [
        {
          "internalType": "uint256",
          "name": "index",
          "type": "uint256"
        }
      ],
      "name": "approveRequest",
      "outputs": [],
      "payable": false,
      "stateMutability": "nonpayable",
      "type": "function"
    },
    {
      "constant": false,
      "inputs": [
        {
          "internalType": "uint256",
          "name": "index",
          "type": "uint256"
        }
      ],
      "name": "finalizeRequest",
      "outputs": [],
      "payable": false,
      "stateMutability": "nonpayable",
      "type": "function"
    },
    {
      "constant": false,
      "inputs": [],
      "name": "withdraw",
      "outputs": [],
      "payable": false,
      "stateMutability": "nonpayable",
      "type": "function"
    },
    {
      "constant": true,
      "inputs": [],
      "name": "getSummary",
      "outputs": [
        {
          "internalType": "uint256",
          "name": "",
          "type": "uint256"
        },
        {
          "internalType": "uint256",
          "name": "",
          "type": "uint256"
        },
        {
          "internalType": "uint256",
          "name": "",
          "type": "uint256"
        },
        {
          "internalType": "uint256",
          "name": "",
          "type": "uint256"
        },
        {
          "internalType": "address",
          "name": "",
          "type": "address"
        }
      ],
      "payable": false,
      "stateMutability": "view",
      "type": "function"
    },
    {
      "constant": true,
      "inputs": [],
      "name": "getRequestsCount",
      "outputs": [
        {
          "internalType": "uint256",
          "name": "",
          "type": "uint256"
        }
      ],
      "payable": false,
      "stateMutability": "view",
      "type": "function"
    }
  ],
  "bytecode": "0x608060405234801561001057600080fd5b506040516112bd3803806112bd8339818101604052604081101561003357600080fd5b81019080805190602001909291908051906020019092919050505080600160006101000a81548173ffffffffffffffffffffffffffffffffffffffff021916908373ffffffffffffffffffffffffffffffffffffffff160217905550816002819055505050611216806100a76000396000f3fe6080604052600436106100a75760003560e01c806381d12c581161006457806381d12c581461025c57806382fde0931461035c5780638a9cfd5514610387578063937e09b114610479578063d7bb99ba146104a4578063d7d1bbdb146104ae576100a7565b806303441006146100ac5780630a144391146100e75780633410452a146101505780633ccfd60b1461017b5780634051ddac14610192578063481c6a7514610205575b600080fd5b3480156100b857600080fd5b506100e5600480360360208110156100cf57600080fd5b81019080803590602001909291905050506104e9565b005b3480156100f357600080fd5b506101366004803603602081101561010a57600080fd5b81019080803573ffffffffffffffffffffffffffffffffffffffff1690602001909291905050506107a6565b604051808215151515815260200191505060405180910390f35b34801561015c57600080fd5b506101656107c6565b6040518082815260200191505060405180910390f35b34801561018757600080fd5b506101906107d2565b005b34801561019e57600080fd5b506101a7610910565b604051808681526020018581526020018481526020018381526020018273ffffffffffffffffffffffffffffffffffffffff1673ffffffffffffffffffffffffffffffffffffffff1681526020019550505050505060405180910390f35b34801561021157600080fd5b5061021a610959565b604051808273ffffffffffffffffffffffffffffffffffffffff1673ffffffffffffffffffffffffffffffffffffffff16815260200191505060405180910390f35b34801561026857600080fd5b506102956004803603602081101561027f57600080fd5b810190808035906020019092919050505061097f565b60405180806020018681526020018573ffffffffffffffffffffffffffffffffffffffff1673ffffffffffffffffffffffffffffffffffffffff16815260200184151515158152602001838152602001828103825287818151815260200191508051906020019080838360005b8381101561031d578082015181840152602081019050610302565b50505050905090810190601f16801561034a5780820380516001836020036101000a031916815260200191505b50965050505050505060405180910390f35b34801561036857600080fd5b50610371610a87565b6040518082815260200191505060405180910390f35b34801561039357600080fd5b50610477600480360360608110156103aa57600080fd5b81019080803590602001906401000000008111156103c757600080fd5b8201836020820111156103d957600080fd5b803590602001918460018302840111640100000000831117156103fb57600080fd5b91908080601f016020809104026020016040519081016040528093929190818152602001838380828437600081840152601f19601f82011690508083019250505050505050919291929080359060200190929190803573ffffffffffffffffffffffffffffffffffffffff169060200190929190505050610a8d565b005b34801561048557600080fd5b5061048e610c4d565b6040518082815260200191505060405180910390f35b6104ac610c53565b005b3480156104ba57600080fd5b506104e7600480360360208110156104d157600080fd5b8101908080359060200190929190505050610e06565b005b600160009054906101000a900473ffffffffffffffffffffffffffffffffffffffff1673ffffffffffffffffffffffffffffffffffffffff163373ffffffffffffffffffffffffffffffffffffffff161461058f576040517f08c379a00000000000000000000000000000000000000000000000000000000081526004018080602001828103825260238152602001806111596023913960400191505060405180910390fd5b600080828154811061059d57fe5b906000526020600020906005020190506002600454816105b957fe5b04816003015411610615576040517f08c379a00000000000000000000000000000000000000000000000000000000081526004018080602001828103825260458152602001806110ca6045913960600191505060405180910390fd5b8060020160149054906101000a900460ff161561067d576040517f08c379a00000000000000000000000000000000000000000000000000000000081526004018080602001828103825260238152602001806111366023913960400191505060405180910390fd5b8060010154600560008360020160009054906101000a900473ffffffffffffffffffffffffffffffffffffffff1673ffffffffffffffffffffffffffffffffffffffff1673ffffffffffffffffffffffffffffffffffffffff1681526020019081526020016000206000828254019250508190555060018160020160146101000a81548160ff0219169083151502179055507ff9d77d51678c8019094b22385f5892943efc40f9421be3fc4f2123196170feea8160020160009054906101000a900473ffffffffffffffffffffffffffffffffffffffff168260010154604051808373ffffffffffffffffffffffffffffffffffffffff1673ffffffffffffffffffffffffffffffffffffffff1681526020018281526020019250505060405180910390a15050565b60036020528060005260406000206000915054906101000a900460ff1681565b60008080549050905090565b6000600560003373ffffffffffffffffffffffffffffffffffffffff1673ffffffffffffffffffffffffffffffffffffffff1681526020019081526020016000205490506000600560003373ffffffffffffffffffffffffffffffffffffffff1673ffffffffffffffffffffffffffffffffffffffff168152602001908152602001600020819055503373ffffffffffffffffffffffffffffffffffffffff166108fc829081150290604051600060405180830381858888f193505050501580156108a1573d6000803e3d6000fd5b507ffa52d709ff7ad7d11a17ae48887a7a1d722ec1e5fea0005cbdd946bf5c50a99b3382604051808373ffffffffffffffffffffffffffffffffffffffff1673ffffffffffffffffffffffffffffffffffffffff1681526020018281526020019250505060405180910390a150565b600080600080600060025447600080549050600454600160009054906101000a900473ffffffffffffffffffffffffffffffffffffffff16945094509450945094509091929394565b600160009054906101000a900473ffffffffffffffffffffffffffffffffffffffff1681565b6000818154811061098c57fe5b9060005260206000209060050201600091509050806000018054600181600116156101000203166002900480601f016020809104026020016040519081016040528092919081815260200182805460018160011615610100020316600290048015610a385780601f10610a0d57610100808354040283529160200191610a38565b820191906000526020600020905b815481529060010190602001808311610a1b57829003601f168201915b5050505050908060010154908060020160009054906101000a900473ffffffffffffffffffffffffffffffffffffffff16908060020160149054906101000a900460ff16908060030154905085565b60045481565b600160009054906101000a900473ffffffffffffffffffffffffffffffffffffffff1673ffffffffffffffffffffffffffffffffffffffff163373ffffffffffffffffffffffffffffffffffffffff1614610b33576040517f08c379a00000000000000000000000000000000000000000000000000000000081526004018080602001828103825260238152602001806111596023913960400191505060405180910390fd5b610b3b610fdd565b6040518060a001604052808581526020018481526020018373ffffffffffffffffffffffffffffffffffffffff16815260200160001515815260200160008152509050600081908060018154018082558091505090600182039060005260206000209060050201600090919290919091506000820151816000019080519060200190610bc8929190611024565b506020820151816001015560408201518160020160006101000a81548173ffffffffffffffffffffffffffffffffffffffff021916908373ffffffffffffffffffffffffffffffffffffffff16021790555060608201518160020160146101000a81548160ff0219169083151502179055506080820151816003015550505050505050565b60025481565b600254341015610cae576040517f08c379a000000000000000000000000000000000000000000000000000000000815260040180806020018281038252603b81526020018061117c603b913960400191505060405180910390fd5b600360003373ffffffffffffffffffffffffffffffffffffffff1673ffffffffffffffffffffffffffffffffffffffff16815260200190815260200160002060009054906101000a900460ff16610d75576004600081548092919060010191905055507f15312ad7b750170e23d10b32e745ca9b907dcbcc1f68d2195d597b68ebdd2e3833604051808273ffffffffffffffffffffffffffffffffffffffff1673ffffffffffffffffffffffffffffffffffffffff16815260200191505060405180910390a15b6001600360003373ffffffffffffffffffffffffffffffffffffffff1673ffffffffffffffffffffffffffffffffffffffff16815260200190815260200160002060006101000a81548160ff0219169083151502179055507f204a45af38383bc021c2160f480e153afb121c4ab872ab66eaeaecf2183dce8e346040518082815260200191505060405180910390a1565b6000808281548110610e1457fe5b90600052602060002090600502019050600360003373ffffffffffffffffffffffffffffffffffffffff1673ffffffffffffffffffffffffffffffffffffffff16815260200190815260200160002060009054906101000a900460ff16610ec6576040517f08c379a000000000000000000000000000000000000000000000000000000000815260040180806020018281038252602b8152602001806111b7602b913960400191505060405180910390fd5b8060040160003373ffffffffffffffffffffffffffffffffffffffff1673ffffffffffffffffffffffffffffffffffffffff16815260200190815260200160002060009054906101000a900460ff1615610f6b576040517f08c379a000000000000000000000000000000000000000000000000000000000815260040180806020018281038252602781526020018061110f6027913960400191505060405180910390fd5b60018160040160003373ffffffffffffffffffffffffffffffffffffffff1673ffffffffffffffffffffffffffffffffffffffff16815260200190815260200160002060006101000a81548160ff02191690831515021790555080600301600081548092919060010191905055505050565b6040518060a001604052806060815260200160008152602001600073ffffffffffffffffffffffffffffffffffffffff168152602001600015158152602001600081525090565b828054600181600116156101000203166002900490600052602060002090601f016020900481019282601f1061106557805160ff1916838001178555611093565b82800160010185558215611093579182015b82811115611092578251825591602001919060010190611077565b5b5090506110a091906110a4565b5090565b6110c691905b808211156110c25760008160009055506001016110aa565b5090565b9056fe4174206c6561737420353025206f662074686520617070726f76657273206d7573742061636365707420746865207265717565737420666f7220697420746f20706173732e596f75206861766520616c726561647920617070726f766564207468697320726571756573742e526571756573742068617320616c7265616479206265656e20636f6d706c657465642e596f7520646f206e6f742068617665206d616e616765722070726976696c656765732e54686520636f6e747269627574696f6e20616d6f756e74206973206c6f776572207468616e20746865206d696e696d756d2061636365707465642e596f7520617265206e6f74206120636f6e7472696275746f7220746f20746869732063616d706169676e2ea265627a7a72315820de95d9ae6834d250b223c00fe900c3650d050bbbc088e1dc8340540895e6628964736f6c63430005100032",
  "source": "\n\n// SPDX-License-Identifier: MIT\npragma solidity >=0.5.0 <0.7.0;\n\n\n/// @title Campaign Factory\n/// @notice A factory contract to instantiate campaigns\ncontract CampaignFactory {\n    /// @notice List of deployed campaigns\n    Campaign[] public deployedCampaigns;\n\n    event NewContractCreated(address contractAddress);\n\n    /// @notice Creates a new campaign and adds it to the list of deployed campaigns\n    /// @dev msg.sender is passed as an argument to preserve the correct sender of the transaction\n    /// @param minimum Minimal contribution you can make to this campaign\n    function createCampaign(uint256 minimum) public {\n        Campaign newCampaign = new Campaign(minimum, msg.sender);\n        deployedCampaigns.push(newCampaign);\n        emit NewContractCreated(address(newCampaign));\n    }\n\n    /// @notice Returns the list of deployed campaigns\n    /// @return List of deployed campaigns\n    function getDeployedCampaigns() public view returns (Campaign[] memory) {\n        return deployedCampaigns;\n    }\n\n}\n\n/// @title Campaign\n/// @notice Contract with the main functionalities of a campaign\ncontract Campaign {\n\n    /** @dev Request struct\n        When the campaign owner wants to use the donated money,\n        he creates a request object with his intents. At least\n        50% of the donors need to accept this request for him to\n        be able to send this money to the recipient address.\n        This is to reduce the chances of an eventual scam.\n    */\n    struct Request {\n        string description;\n        uint256 value;\n        address payable recipient;\n        bool complete;\n        uint256 approvalCount;\n        mapping(address => bool) approvals;\n    }\n\n    /// @notice List of requests\n    Request[] public requests;\n    /// @notice Campaign owner\n    address public manager;\n    /// @notice Minimum contribution accepted for this campaign\n    uint256 public minimumContribution;\n    /// @notice List of approvers\n    mapping(address => bool) public approvers;\n    /// @notice Approvers count\n    /// @dev Design pattern used with mapping to account for the mapping's length without iteration\n    uint256 public approversCount;\n    /// @dev Withdrawal design pattern\n    mapping(address => uint256) pendingWithdrawals;\n\n    event NewContribution(uint256 amount);\n    event NewContributor(address contributor);\n    event SubmittedRequestToRecipient(address recipient, uint256 amount);\n    event TransferComplete(address recipient, uint256 amount);\n\n    /// @notice Modifier that authorizes only a manager to perform an action\n    modifier restricted() {\n        require(msg.sender == manager, \"You do not have manager privileges.\");\n        _;\n    }\n\n    /// @notice Campaign constructor\n    /// @param minimum Minumum contribution\n    /// @param creator Creator of the campaign contract through the factory method\n    constructor(uint256 minimum, address creator) public {\n        manager = creator;\n        minimumContribution = minimum;\n    }\n\n    // TODO Make your voting power proportional to the amount you contributed\n    /// @notice Donate for a campaign\n    function contribute() public payable {\n        require(msg.value >= minimumContribution, 'The contribution amount is lower than the minimum accepted.');\n\n        /// Avoid increasing the approversCount for the same donor\n        if(!approvers[msg.sender]) {\n          approversCount++;\n          emit NewContributor(msg.sender);\n        }\n\n        approvers[msg.sender] = true;\n        emit NewContribution(msg.value);\n    }\n\n    /// @notice Allow a campaign owner to create a request\n    /// @param description Description of request\n    /// @param value Associated value to the request\n    /// @param recipient Recipient of the money\n    function createRequest(string memory description, uint256 value, address payable recipient) public restricted {\n        Request memory newRequest = Request({\n           description: description,\n           value: value,\n           recipient: recipient,\n           complete: false,\n           approvalCount: 0\n        });\n\n        requests.push(newRequest);\n    }\n\n    /// @notice Allow a contributor to approve a request\n    /// @param index Request's id\n    function approveRequest(uint256 index) public {\n        Request storage request = requests[index];\n\n        require(approvers[msg.sender], 'You are not a contributor to this campaign.');\n        require(!request.approvals[msg.sender], 'You have already approved this request.');\n\n        request.approvals[msg.sender] = true;\n        request.approvalCount++;\n\n    }\n\n    /// @notice Transfer request value to the recipient when the majority of contirbutors approve the request\n    /// @param index Request's id\n    function finalizeRequest(uint256 index) public restricted {\n        Request storage request = requests[index];\n\n        require(request.approvalCount > (approversCount/2), 'At least 50% of the approvers must accept the request for it to pass.');\n        require(!request.complete, 'Request has already been completed.');\n\n        // SafeMath is not needed since we only add the amount once.\n        pendingWithdrawals[request.recipient] += request.value;\n        request.complete = true;\n        emit SubmittedRequestToRecipient(request.recipient, request.value);\n    }\n\n    /// @notice Allow a request's recipient to withdraw value\n    function withdraw() public {\n        uint256 amount = pendingWithdrawals[msg.sender];\n        pendingWithdrawals[msg.sender] = 0;\n        msg.sender.transfer(amount);\n        emit TransferComplete(msg.sender, amount);\n    }\n\n    /// @notice Get summarized contract information\n    /// @return uint Minimum contribution\n    /// @return uint Contract balance\n    /// @return uint Number of requests\n    /// @return uint Number of contributors\n    /// @return uint Owner's address\n    function getSummary() public view returns (\n      uint256, uint256, uint256, uint256, address\n      ) {\n      return (\n          minimumContribution,\n          address(this).balance,\n          requests.length,\n          approversCount,\n          manager\n        );\n    }\n\n    /// @notice Get the number of requests\n    /// @return Request's array length\n    function getRequestsCount() public view returns (uint256) {\n      return requests.length;\n    }\n\n}",
  "sourcePath": "C:\\Users\\miche\\Documents\\Projects\\ethereum\\kickstart-project\\kickstart\\ethereum\\contracts\\Campaign.sol",
  "compiler": {
    "name": "solc",
    "version": "0.5.16+commit.9c3226ce.Emscripten.clang"
  },
  "schemaVersion": "3.1.0",
  "updatedAt": "2020-07-15T17:53:35.036Z",
  "devdoc": {
    "methods": {
      "approveRequest(uint256)": {
        "params": {
          "index": "Request's id"
        }
      },
      "constructor": {
        "params": {
          "creator": "Creator of the campaign contract through the factory method",
          "minimum": "Minumum contribution"
        }
      },
      "createRequest(string,uint256,address)": {
        "params": {
          "description": "Description of request",
          "recipient": "Recipient of the money",
          "value": "Associated value to the request"
        }
      },
      "finalizeRequest(uint256)": {
        "params": {
          "index": "Request's id"
        }
      },
      "getRequestsCount()": {
        "return": "Request's array length"
      },
      "getSummary()": {
        "return": "uint Minimum contributionuint Contract balanceuint Number of requestsuint Number of contributorsuint Owner's address"
      }
    },
    "title": "Campaign"
  },
  "userdoc": {
    "methods": {
      "approveRequest(uint256)": {
        "notice": "Allow a contributor to approve a request"
      },
      "constructor": "Campaign constructor",
      "contribute()": {
        "notice": "Donate for a campaign"
      },
      "createRequest(string,uint256,address)": {
        "notice": "Allow a campaign owner to create a request"
      },
      "finalizeRequest(uint256)": {
        "notice": "Transfer request value to the recipient when the majority of contirbutors approve the request"
      },
      "getRequestsCount()": {
        "notice": "Get the number of requests"
      },
      "getSummary()": {
        "notice": "Get summarized contract information"
      },
      "withdraw()": {
        "notice": "Allow a request's recipient to withdraw value"
      }
    },
    "notice": "Contract with the main functionalities of a campaign"
  }
}