{
  "contractName": "Campaign",
  "abi": [
    {
      "inputs": [
        {
          "internalType": "uint256",
          "name": "minimum",
          "type": "uint256"
        },
        {
          "internalType": "address",
          "name": "creator",
          "type": "address"
        }
      ],
      "payable": false,
      "stateMutability": "nonpayable",
      "type": "constructor"
    },
    {
      "anonymous": false,
      "inputs": [
        {
          "indexed": false,
          "internalType": "uint256",
          "name": "amount",
          "type": "uint256"
        }
      ],
      "name": "NewContribution",
      "type": "event"
    },
    {
      "anonymous": false,
      "inputs": [
        {
          "indexed": false,
          "internalType": "address",
          "name": "contributor",
          "type": "address"
        }
      ],
      "name": "NewContributor",
      "type": "event"
    },
    {
      "anonymous": false,
      "inputs": [
        {
          "indexed": false,
          "internalType": "address",
          "name": "recipient",
          "type": "address"
        },
        {
          "indexed": false,
          "internalType": "uint256",
          "name": "amount",
          "type": "uint256"
        }
      ],
      "name": "SubmittedRequestToRecipient",
      "type": "event"
    },
    {
      "anonymous": false,
      "inputs": [
        {
          "indexed": false,
          "internalType": "address",
          "name": "recipient",
          "type": "address"
        },
        {
          "indexed": false,
          "internalType": "uint256",
          "name": "amount",
          "type": "uint256"
        }
      ],
      "name": "TransferComplete",
      "type": "event"
    },
    {
      "constant": true,
      "inputs": [
        {
          "internalType": "address",
          "name": "",
          "type": "address"
        }
      ],
      "name": "approvers",
      "outputs": [
        {
          "internalType": "bool",
          "name": "",
          "type": "bool"
        }
      ],
      "payable": false,
      "stateMutability": "view",
      "type": "function"
    },
    {
      "constant": true,
      "inputs": [],
      "name": "approversCount",
      "outputs": [
        {
          "internalType": "uint256",
          "name": "",
          "type": "uint256"
        }
      ],
      "payable": false,
      "stateMutability": "view",
      "type": "function"
    },
    {
      "constant": true,
      "inputs": [],
      "name": "balance",
      "outputs": [
        {
          "internalType": "uint256",
          "name": "",
          "type": "uint256"
        }
      ],
      "payable": false,
      "stateMutability": "view",
      "type": "function"
    },
    {
      "constant": true,
      "inputs": [],
      "name": "manager",
      "outputs": [
        {
          "internalType": "address",
          "name": "",
          "type": "address"
        }
      ],
      "payable": false,
      "stateMutability": "view",
      "type": "function"
    },
    {
      "constant": true,
      "inputs": [],
      "name": "minimumContribution",
      "outputs": [
        {
          "internalType": "uint256",
          "name": "",
          "type": "uint256"
        }
      ],
      "payable": false,
      "stateMutability": "view",
      "type": "function"
    },
    {
      "constant": true,
      "inputs": [
        {
          "internalType": "address",
          "name": "",
          "type": "address"
        }
      ],
      "name": "pendingWithdrawals",
      "outputs": [
        {
          "internalType": "uint256",
          "name": "",
          "type": "uint256"
        }
      ],
      "payable": false,
      "stateMutability": "view",
      "type": "function"
    },
    {
      "constant": true,
      "inputs": [
        {
          "internalType": "uint256",
          "name": "",
          "type": "uint256"
        }
      ],
      "name": "requests",
      "outputs": [
        {
          "internalType": "string",
          "name": "description",
          "type": "string"
        },
        {
          "internalType": "uint256",
          "name": "value",
          "type": "uint256"
        },
        {
          "internalType": "address payable",
          "name": "recipient",
          "type": "address"
        },
        {
          "internalType": "bool",
          "name": "complete",
          "type": "bool"
        },
        {
          "internalType": "uint256",
          "name": "approvalCount",
          "type": "uint256"
        }
      ],
      "payable": false,
      "stateMutability": "view",
      "type": "function"
    },
    {
      "constant": false,
      "inputs": [],
      "name": "contribute",
      "outputs": [],
      "payable": true,
      "stateMutability": "payable",
      "type": "function"
    },
    {
      "constant": false,
      "inputs": [
        {
          "internalType": "string",
          "name": "description",
          "type": "string"
        },
        {
          "internalType": "uint256",
          "name": "value",
          "type": "uint256"
        },
        {
          "internalType": "address payable",
          "name": "recipient",
          "type": "address"
        }
      ],
      "name": "createRequest",
      "outputs": [],
      "payable": false,
      "stateMutability": "nonpayable",
      "type": "function"
    },
    {
      "constant": false,
      "inputs": [
        {
          "internalType": "uint256",
          "name": "index",
          "type": "uint256"
        }
      ],
      "name": "approveRequest",
      "outputs": [],
      "payable": false,
      "stateMutability": "nonpayable",
      "type": "function"
    },
    {
      "constant": false,
      "inputs": [
        {
          "internalType": "uint256",
          "name": "index",
          "type": "uint256"
        }
      ],
      "name": "finalizeRequest",
      "outputs": [],
      "payable": false,
      "stateMutability": "nonpayable",
      "type": "function"
    },
    {
      "constant": false,
      "inputs": [
        {
          "internalType": "uint256",
          "name": "index",
          "type": "uint256"
        }
      ],
      "name": "cancelRequest",
      "outputs": [],
      "payable": false,
      "stateMutability": "nonpayable",
      "type": "function"
    },
    {
      "constant": false,
      "inputs": [],
      "name": "withdraw",
      "outputs": [],
      "payable": false,
      "stateMutability": "nonpayable",
      "type": "function"
    },
    {
      "constant": true,
      "inputs": [],
      "name": "getSummary",
      "outputs": [
        {
          "internalType": "uint256",
          "name": "",
          "type": "uint256"
        },
        {
          "internalType": "uint256",
          "name": "",
          "type": "uint256"
        },
        {
          "internalType": "uint256",
          "name": "",
          "type": "uint256"
        },
        {
          "internalType": "uint256",
          "name": "",
          "type": "uint256"
        },
        {
          "internalType": "address",
          "name": "",
          "type": "address"
        }
      ],
      "payable": false,
      "stateMutability": "view",
      "type": "function"
    },
    {
      "constant": true,
      "inputs": [],
      "name": "getRequestsCount",
      "outputs": [
        {
          "internalType": "uint256",
          "name": "",
          "type": "uint256"
        }
      ],
      "payable": false,
      "stateMutability": "view",
      "type": "function"
    }
  ],
  "bytecode": "0x608060405234801561001057600080fd5b506040516116853803806116858339818101604052604081101561003357600080fd5b81019080805190602001909291908051906020019092919050505080600160006101000a81548173ffffffffffffffffffffffffffffffffffffffff021916908373ffffffffffffffffffffffffffffffffffffffff1602179055508160028190555050506115de806100a76000396000f3fe6080604052600436106100e85760003560e01c806381d12c581161008a578063b69ef8a811610059578063b69ef8a814610520578063d7bb99ba1461054b578063d7d1bbdb14610555578063f3f4370314610590576100e8565b806381d12c58146102d857806382fde093146103d85780638a9cfd5514610403578063937e09b1146104f5576100e8565b80633410452a116100c65780633410452a146101cc5780633ccfd60b146101f75780634051ddac1461020e578063481c6a7514610281576100e8565b806303441006146100ed5780630a144391146101285780633015394c14610191575b600080fd5b3480156100f957600080fd5b506101266004803603602081101561011057600080fd5b81019080803590602001909291905050506105f5565b005b34801561013457600080fd5b506101776004803603602081101561014b57600080fd5b81019080803573ffffffffffffffffffffffffffffffffffffffff169060200190929190505050610924565b604051808215151515815260200191505060405180910390f35b34801561019d57600080fd5b506101ca600480360360208110156101b457600080fd5b8101908080359060200190929190505050610944565b005b3480156101d857600080fd5b506101e1610b36565b6040518082815260200191505060405180910390f35b34801561020357600080fd5b5061020c610b42565b005b34801561021a57600080fd5b50610223610c80565b604051808681526020018581526020018481526020018381526020018273ffffffffffffffffffffffffffffffffffffffff1673ffffffffffffffffffffffffffffffffffffffff1681526020019550505050505060405180910390f35b34801561028d57600080fd5b50610296610cc9565b604051808273ffffffffffffffffffffffffffffffffffffffff1673ffffffffffffffffffffffffffffffffffffffff16815260200191505060405180910390f35b3480156102e457600080fd5b50610311600480360360208110156102fb57600080fd5b8101908080359060200190929190505050610cef565b60405180806020018681526020018573ffffffffffffffffffffffffffffffffffffffff1673ffffffffffffffffffffffffffffffffffffffff16815260200184151515158152602001838152602001828103825287818151815260200191508051906020019080838360005b8381101561039957808201518184015260208101905061037e565b50505050905090810190601f1680156103c65780820380516001836020036101000a031916815260200191505b50965050505050505060405180910390f35b3480156103e457600080fd5b506103ed610df7565b6040518082815260200191505060405180910390f35b34801561040f57600080fd5b506104f36004803603606081101561042657600080fd5b810190808035906020019064010000000081111561044357600080fd5b82018360208201111561045557600080fd5b8035906020019184600183028401116401000000008311171561047757600080fd5b91908080601f016020809104026020016040519081016040528093929190818152602001838380828437600081840152601f19601f82011690508083019250505050505050919291929080359060200190929190803573ffffffffffffffffffffffffffffffffffffffff169060200190929190505050610dfd565b005b34801561050157600080fd5b5061050a610fbd565b6040518082815260200191505060405180910390f35b34801561052c57600080fd5b50610535610fc3565b6040518082815260200191505060405180910390f35b610553610fc9565b005b34801561056157600080fd5b5061058e6004803603602081101561057857600080fd5b810190808035906020019092919050505061118c565b005b34801561059c57600080fd5b506105df600480360360208110156105b357600080fd5b81019080803573ffffffffffffffffffffffffffffffffffffffff169060200190929190505050611363565b6040518082815260200191505060405180910390f35b600160009054906101000a900473ffffffffffffffffffffffffffffffffffffffff1673ffffffffffffffffffffffffffffffffffffffff163373ffffffffffffffffffffffffffffffffffffffff161461069b576040517f08c379a00000000000000000000000000000000000000000000000000000000081526004018080602001828103825260238152602001806115216023913960400191505060405180910390fd5b60008082815481106106a957fe5b90600052602060002090600502019050600654816001015410610717576040517f08c379a00000000000000000000000000000000000000000000000000000000081526004018080602001828103825260298152602001806114d56029913960400191505060405180910390fd5b60026004548161072357fe5b0481600301541161077f576040517f08c379a00000000000000000000000000000000000000000000000000000000081526004018080602001828103825260468152602001806114686046913960600191505060405180910390fd5b8060020160149054906101000a900460ff16156107e7576040517f08c379a00000000000000000000000000000000000000000000000000000000081526004018080602001828103825260238152602001806114fe6023913960400191505060405180910390fd5b80600101546006600082825403925050819055508060010154600560008360020160009054906101000a900473ffffffffffffffffffffffffffffffffffffffff1673ffffffffffffffffffffffffffffffffffffffff1673ffffffffffffffffffffffffffffffffffffffff1681526020019081526020016000206000828254019250508190555060018160020160146101000a81548160ff0219169083151502179055507ff9d77d51678c8019094b22385f5892943efc40f9421be3fc4f2123196170feea8160020160009054906101000a900473ffffffffffffffffffffffffffffffffffffffff168260010154604051808373ffffffffffffffffffffffffffffffffffffffff1673ffffffffffffffffffffffffffffffffffffffff1681526020018281526020019250505060405180910390a15050565b60036020528060005260406000206000915054906101000a900460ff1681565b600160009054906101000a900473ffffffffffffffffffffffffffffffffffffffff1673ffffffffffffffffffffffffffffffffffffffff163373ffffffffffffffffffffffffffffffffffffffff16146109ea576040517f08c379a00000000000000000000000000000000000000000000000000000000081526004018080602001828103825260238152602001806115216023913960400191505060405180910390fd5b60008082815481106109f857fe5b906000526020600020906005020190508060020160149054906101000a900460ff16610a8c576040517f08c379a00000000000000000000000000000000000000000000000000000000081526004018080602001828103825260188152602001807f52657175657374206973206e6f7420636f6d706c6574652e000000000000000081525060200191505060405180910390fd5b60008160020160146101000a81548160ff02191690831515021790555080600101546006600082825401925050819055508060010154600560008360020160009054906101000a900473ffffffffffffffffffffffffffffffffffffffff1673ffffffffffffffffffffffffffffffffffffffff1673ffffffffffffffffffffffffffffffffffffffff168152602001908152602001600020600082825403925050819055505050565b60008080549050905090565b6000600560003373ffffffffffffffffffffffffffffffffffffffff1673ffffffffffffffffffffffffffffffffffffffff1681526020019081526020016000205490506000600560003373ffffffffffffffffffffffffffffffffffffffff1673ffffffffffffffffffffffffffffffffffffffff168152602001908152602001600020819055503373ffffffffffffffffffffffffffffffffffffffff166108fc829081150290604051600060405180830381858888f19350505050158015610c11573d6000803e3d6000fd5b507ffa52d709ff7ad7d11a17ae48887a7a1d722ec1e5fea0005cbdd946bf5c50a99b3382604051808373ffffffffffffffffffffffffffffffffffffffff1673ffffffffffffffffffffffffffffffffffffffff1681526020018281526020019250505060405180910390a150565b600080600080600060025447600080549050600454600160009054906101000a900473ffffffffffffffffffffffffffffffffffffffff16945094509450945094509091929394565b600160009054906101000a900473ffffffffffffffffffffffffffffffffffffffff1681565b60008181548110610cfc57fe5b9060005260206000209060050201600091509050806000018054600181600116156101000203166002900480601f016020809104026020016040519081016040528092919081815260200182805460018160011615610100020316600290048015610da85780601f10610d7d57610100808354040283529160200191610da8565b820191906000526020600020905b815481529060010190602001808311610d8b57829003601f168201915b5050505050908060010154908060020160009054906101000a900473ffffffffffffffffffffffffffffffffffffffff16908060020160149054906101000a900460ff16908060030154905085565b60045481565b600160009054906101000a900473ffffffffffffffffffffffffffffffffffffffff1673ffffffffffffffffffffffffffffffffffffffff163373ffffffffffffffffffffffffffffffffffffffff1614610ea3576040517f08c379a00000000000000000000000000000000000000000000000000000000081526004018080602001828103825260238152602001806115216023913960400191505060405180910390fd5b610eab61137b565b6040518060a001604052808581526020018481526020018373ffffffffffffffffffffffffffffffffffffffff16815260200160001515815260200160008152509050600081908060018154018082558091505090600182039060005260206000209060050201600090919290919091506000820151816000019080519060200190610f389291906113c2565b506020820151816001015560408201518160020160006101000a81548173ffffffffffffffffffffffffffffffffffffffff021916908373ffffffffffffffffffffffffffffffffffffffff16021790555060608201518160020160146101000a81548160ff0219169083151502179055506080820151816003015550505050505050565b60025481565b60065481565b600254341015611024576040517f08c379a000000000000000000000000000000000000000000000000000000000815260040180806020018281038252603b815260200180611544603b913960400191505060405180910390fd5b600360003373ffffffffffffffffffffffffffffffffffffffff1673ffffffffffffffffffffffffffffffffffffffff16815260200190815260200160002060009054906101000a900460ff166110eb576004600081548092919060010191905055507f15312ad7b750170e23d10b32e745ca9b907dcbcc1f68d2195d597b68ebdd2e3833604051808273ffffffffffffffffffffffffffffffffffffffff1673ffffffffffffffffffffffffffffffffffffffff16815260200191505060405180910390a15b6001600360003373ffffffffffffffffffffffffffffffffffffffff1673ffffffffffffffffffffffffffffffffffffffff16815260200190815260200160002060006101000a81548160ff021916908315150217905550346006600082825401925050819055507f204a45af38383bc021c2160f480e153afb121c4ab872ab66eaeaecf2183dce8e346040518082815260200191505060405180910390a1565b600080828154811061119a57fe5b90600052602060002090600502019050600360003373ffffffffffffffffffffffffffffffffffffffff1673ffffffffffffffffffffffffffffffffffffffff16815260200190815260200160002060009054906101000a900460ff1661124c576040517f08c379a000000000000000000000000000000000000000000000000000000000815260040180806020018281038252602b81526020018061157f602b913960400191505060405180910390fd5b8060040160003373ffffffffffffffffffffffffffffffffffffffff1673ffffffffffffffffffffffffffffffffffffffff16815260200190815260200160002060009054906101000a900460ff16156112f1576040517f08c379a00000000000000000000000000000000000000000000000000000000081526004018080602001828103825260278152602001806114ae6027913960400191505060405180910390fd5b60018160040160003373ffffffffffffffffffffffffffffffffffffffff1673ffffffffffffffffffffffffffffffffffffffff16815260200190815260200160002060006101000a81548160ff02191690831515021790555080600301600081548092919060010191905055505050565b60056020528060005260406000206000915090505481565b6040518060a001604052806060815260200160008152602001600073ffffffffffffffffffffffffffffffffffffffff168152602001600015158152602001600081525090565b828054600181600116156101000203166002900490600052602060002090601f016020900481019282601f1061140357805160ff1916838001178555611431565b82800160010185558215611431579182015b82811115611430578251825591602001919060010190611415565b5b50905061143e9190611442565b5090565b61146491905b80821115611460576000816000905550600101611448565b5090565b9056fe4d6f7265207468616e20353025206f662074686520617070726f76657273206d7573742061636365707420746865207265717565737420666f7220697420746f20706173732e596f75206861766520616c726561647920617070726f766564207468697320726571756573742e417474656d707420746f2066696e616c697a6520616e20696e6665617369626c652072657175657374526571756573742068617320616c7265616479206265656e20636f6d706c657465642e596f7520646f206e6f742068617665206d616e616765722070726976696c656765732e54686520636f6e747269627574696f6e20616d6f756e74206973206c6f776572207468616e20746865206d696e696d756d2061636365707465642e596f7520617265206e6f74206120636f6e7472696275746f7220746f20746869732063616d706169676e2ea265627a7a72315820fc761b8e0add71d97de3320877b8bf1e6d13f08a4c2104ad62c6ad4c281ecc7764736f6c63430005100032",
  "source": "// SPDX-License-Identifier: MIT\r\npragma solidity >=0.5.0 <0.7.0;\r\n\r\n\r\n/// @title Campaign Factory\r\n/// @notice A factory contract to instantiate campaigns\r\ncontract CampaignFactory {\r\n    /// @notice List of deployed campaigns\r\n    Campaign[] public deployedCampaigns;\r\n\r\n    event NewContractCreated(address contractAddress);\r\n\r\n    /// @notice Creates a new campaign and adds it to the list of deployed campaigns\r\n    /// @dev msg.sender is passed as an argument to preserve the correct sender of the transaction\r\n    /// @param minimum Minimal contribution you can make to this campaign\r\n    function createCampaign(uint256 minimum) public {\r\n        Campaign newCampaign = new Campaign(minimum, msg.sender);\r\n        deployedCampaigns.push(newCampaign);\r\n        emit NewContractCreated(address(newCampaign));\r\n    }\r\n\r\n    /// @notice Returns the list of deployed campaigns\r\n    /// @return List of deployed campaigns\r\n    function getDeployedCampaigns() public view returns (Campaign[] memory) {\r\n        return deployedCampaigns;\r\n    }\r\n\r\n}\r\n\r\n/// @title Campaign\r\n/// @notice Contract with the main functionalities of a campaign\r\ncontract Campaign {\r\n\r\n    /** @dev Request struct\r\n        When the campaign owner wants to use the donated money,\r\n        he creates a request object with his intents. At least\r\n        50% of the donors need to accept this request for him to\r\n        be able to send this money to the recipient address.\r\n        This is to reduce the chances of an eventual scam.\r\n    */\r\n    struct Request {\r\n        string description;\r\n        uint256 value;\r\n        address payable recipient;\r\n        bool complete;\r\n        uint256 approvalCount;\r\n        mapping(address => bool) approvals;\r\n    }\r\n\r\n    /// @notice List of requests\r\n    Request[] public requests;\r\n    /// @notice Campaign owner\r\n    address public manager;\r\n    /// @notice Minimum contribution accepted for this campaign\r\n    uint256 public minimumContribution;\r\n    /// @notice List of approvers\r\n    mapping(address => bool) public approvers;\r\n    /// @notice Approvers count\r\n    /// @dev Design pattern used with mapping to account for the mapping's length without iteration\r\n    uint256 public approversCount;\r\n    /// @dev Withdrawal design pattern\r\n    mapping(address => uint256) public pendingWithdrawals;\r\n    /// @dev Counter that follows life of contract balance\r\n    uint256 public balance;\r\n\r\n    event NewContribution(uint256 amount);\r\n    event NewContributor(address contributor);\r\n    event SubmittedRequestToRecipient(address recipient, uint256 amount);\r\n    event TransferComplete(address recipient, uint256 amount);\r\n\r\n    /// @notice Modifier that authorizes only a manager to perform an action\r\n    modifier restricted() {\r\n        require(msg.sender == manager, \"You do not have manager privileges.\");\r\n        _;\r\n    }\r\n\r\n    /// @notice Campaign constructor\r\n    /// @param minimum Minumum contribution\r\n    /// @param creator Creator of the campaign contract through the factory method\r\n    constructor(uint256 minimum, address creator) public {\r\n        manager = creator;\r\n        minimumContribution = minimum;\r\n    }\r\n\r\n    // TODO Make your voting power proportional to the amount you contributed\r\n    /// @notice Donate for a campaign\r\n    function contribute() public payable {\r\n        require(msg.value >= minimumContribution, 'The contribution amount is lower than the minimum accepted.');\r\n\r\n        /// Avoid increasing the approversCount for the same donor\r\n        if(!approvers[msg.sender]) {\r\n          approversCount++;\r\n          emit NewContributor(msg.sender);\r\n        }\r\n\r\n        approvers[msg.sender] = true;\r\n        balance += msg.value;\r\n        emit NewContribution(msg.value);\r\n    }\r\n\r\n    /// @notice Allow a campaign owner to create a request\r\n    /// @param description Description of request\r\n    /// @param value Associated value to the request\r\n    /// @param recipient Recipient of the money\r\n    function createRequest(string memory description, uint256 value, address payable recipient) public restricted {\r\n        Request memory newRequest = Request({\r\n           description: description,\r\n           value: value,\r\n           recipient: recipient,\r\n           complete: false,\r\n           approvalCount: 0\r\n        });\r\n\r\n        requests.push(newRequest);\r\n    }\r\n\r\n    /// @notice Allow a contributor to approve a request\r\n    /// @param index Request's id\r\n    function approveRequest(uint256 index) public {\r\n        Request storage request = requests[index];\r\n\r\n        require(approvers[msg.sender], 'You are not a contributor to this campaign.');\r\n        require(!request.approvals[msg.sender], 'You have already approved this request.');\r\n\r\n        request.approvals[msg.sender] = true;\r\n        request.approvalCount++;\r\n\r\n    }\r\n\r\n    /// @notice Transfer request value to the recipient when the majority of contirbutors approve the request\r\n    /// @param index Request's id\r\n    function finalizeRequest(uint256 index) public restricted {\r\n        Request storage request = requests[index];\r\n\r\n        require(request.value < balance, \"Attempt to finalize an infeasible request\");\r\n        require(request.approvalCount > (approversCount/2), 'More than 50% of the approvers must accept the request for it to pass.');\r\n        require(!request.complete, 'Request has already been completed.');\r\n\r\n        balance -= request.value;\r\n        // TODO Add Safe Math\r\n        pendingWithdrawals[request.recipient] += request.value;\r\n        request.complete = true;\r\n        emit SubmittedRequestToRecipient(request.recipient, request.value);\r\n    }\r\n\r\n    // TODO This feature might be deleted\r\n    /// @notice Cancel finalization of request\r\n    /// @param index Request's id\r\n    function cancelRequest(uint256 index) public restricted {\r\n        Request storage request = requests[index];\r\n\r\n        require(request.complete, 'Request is not complete.');\r\n\r\n        request.complete = false;\r\n        balance += request.value;\r\n        pendingWithdrawals[request.recipient] -= request.value;\r\n        // TODO reset mapping to default configuration (to be able to revote)\r\n    }\r\n\r\n    /// @notice Allow a request's recipient to withdraw value\r\n    function withdraw() public {\r\n        uint256 amount = pendingWithdrawals[msg.sender];\r\n        pendingWithdrawals[msg.sender] = 0;\r\n        msg.sender.transfer(amount);\r\n        emit TransferComplete(msg.sender, amount);\r\n    }\r\n\r\n    /// @notice Get summarized contract information\r\n    /// @return uint Minimum contribution\r\n    /// @return uint Contract balance\r\n    /// @return uint Number of requests\r\n    /// @return uint Number of contributors\r\n    /// @return uint Owner's address\r\n    function getSummary() public view returns (\r\n      uint256, uint256, uint256, uint256, address\r\n      ) {\r\n      return (\r\n          minimumContribution,\r\n          address(this).balance,\r\n          requests.length,\r\n          approversCount,\r\n          manager\r\n        );\r\n    }\r\n\r\n    /// @notice Get the number of requests\r\n    /// @return Request's array length\r\n    function getRequestsCount() public view returns (uint256) {\r\n      return requests.length;\r\n    }\r\n\r\n}",
  "sourcePath": "/mnt/c/Users/miche/Documents/Projects/ethereum/kickstart-project/kickstart/ethereum/contracts/Campaign.sol",
  "compiler": {
    "name": "solc",
    "version": "0.5.16+commit.9c3226ce.Emscripten.clang"
  },
  "schemaVersion": "3.1.0",
  "updatedAt": "2020-08-20T21:17:42.821Z",
  "devdoc": {
    "methods": {
      "approveRequest(uint256)": {
        "params": {
          "index": "Request's id"
        }
      },
      "cancelRequest(uint256)": {
        "params": {
          "index": "Request's id"
        }
      },
      "constructor": {
        "params": {
          "creator": "Creator of the campaign contract through the factory method",
          "minimum": "Minumum contribution"
        }
      },
      "createRequest(string,uint256,address)": {
        "params": {
          "description": "Description of request",
          "recipient": "Recipient of the money",
          "value": "Associated value to the request"
        }
      },
      "finalizeRequest(uint256)": {
        "params": {
          "index": "Request's id"
        }
      },
      "getRequestsCount()": {
        "return": "Request's array length"
      },
      "getSummary()": {
        "return": "uint Minimum contributionuint Contract balanceuint Number of requestsuint Number of contributorsuint Owner's address"
      }
    },
    "title": "Campaign"
  },
  "userdoc": {
    "methods": {
      "approveRequest(uint256)": {
        "notice": "Allow a contributor to approve a request"
      },
      "cancelRequest(uint256)": {
        "notice": "Cancel finalization of request"
      },
      "constructor": "Campaign constructor",
      "contribute()": {
        "notice": "Donate for a campaign"
      },
      "createRequest(string,uint256,address)": {
        "notice": "Allow a campaign owner to create a request"
      },
      "finalizeRequest(uint256)": {
        "notice": "Transfer request value to the recipient when the majority of contirbutors approve the request"
      },
      "getRequestsCount()": {
        "notice": "Get the number of requests"
      },
      "getSummary()": {
        "notice": "Get summarized contract information"
      },
      "withdraw()": {
        "notice": "Allow a request's recipient to withdraw value"
      }
    },
    "notice": "Contract with the main functionalities of a campaign"
  }
}